:0A0000008031022888018F31002FA3
:101E00002000022F2100F03099009501FB308C005A
:101E100022009101970101309D00240008308C00C0
:101E200020008B019E018C0123008C0190309D00CD
:101E300024309E0008309F0040309B0003309C00FF
:101E40002000911E212F23001908F600403A0319A3
:101E5000A12F7608803A031D342F5030C2278F31CE
:101E60002000111E302F0100760830390319202F71
:101E7000C9278F31F31B202F7208F7007308F80071
:101E8000C9278F31F31B202F7208F9007308FA005D
:101E90007608103A031D602F803095007708910076
:101EA00078089200F70A0319F80A151400000000D8
:101EB0001308C2278F311408C2278F31F90B4E2F18
:101EC0007608203A031D8B2F213079020318A92FA1
:101ED0000E307802E130031977020318A92F503031
:101EE000C2278F317708910078089200A4309500BE
:101EF000C9278F31F31BA52F720893007308940034
:101F00007908013A03199512E7278F31910AF90BE5
:101F1000782F1511A12F7608303A031D202F0E308F
:101F20007802E130031977020318A92F770891008E
:101F30007808920094309500E7278F311511A12F72
:101F4000202F5030C2278F31202FE030C2278F3111
:101F5000202FA030C2278F31202FFA30F000200030
:101F6000911EB52F2300190808006A30F100F10B0B
:101F7000B72FF00BAF2FFF342000111EBC2F230012
:101F80009A000800F0000F39BC278F31700E0F390E
:101F9000BC2FAD278F31F200AD278F31F400AD2774
:101FA0008F31F300AD278F31F500F208740473040C
:101FB0007504F039031DE12F740EF204750EF3045D
:101FC0000800E030C2278F318030F3000800553020
:0E1FD0009600AA30960095140000000008004C
:00000001FF
