:100000008031AF28FF3FFF3F80310B1C9E28270027
:10001000131E9E28200018101708F5001608F4007B
:100020009601970118142100111420000C1E1B28A2
:100030002100CF151D282100CF114F08CF392038BE
:10004000CF00013075027830031974020230031CAE
:1000500055287502713003197402031854284F088B
:100060000339F200F20A4F087206FC397206CF001B
:100070004F080339023A031D4C284F0CF200F20CD2
:10008000720C0139F300F30E4F087306CF39730673
:10009000CF00FC30CF0580284F080339013A031DFB
:1000A00080283030CF04802802307502EF300319E9
:1000B0007402031C802804307502E23003197402B4
:1000C000031880284F080339F200F20A4F0872061D
:1000D000FC397206CF004F080339023A031D80280D
:1000E0004F0CF200F20C720C0139F300F30E4F08C2
:1000F0007306CF397306CF004F08FC390138CF00A3
:100100004F0E0339F2000230720203189128CF1B00
:100110008D288531662580319B2886313B268031AC
:100120009B284F0E0339023A031D9B28CE018330D2
:10013000CF05D001D101270013120B102000111C94
:1001400009001810960197012100111020001110CC
:100150002100CE018330CF05D001D10109008801F3
:100160008031B228CE3084000030850017308631CF
:100170007E26803120308400013085002030863199
:100180007E2680310030F6001430F7008030F80011
:100190000830F90021005F30E5008030E6000130D2
:1001A000E7000030E8000030E9001430EA00803059
:1001B000EB004030EC002000DD28F03021009900F9
:1001C00095012200910120009E012200970101303B
:1001D0009D00FB3021008C0020008C0123008C014D
:1001E000083024008C008B017922803120008C198A
:1001F000FC280C158F31002F872280312100CB0184
:10020000CC01352280310A3021004C02031820290C
:100210003C30BE0005302000A00021004C084222E6
:1002200080312100BE073E08A2228031C100103A71
:1002300003192029C108031D1E29CC0A352280314B
:10024000DA228031003A03190329DF2280312100AC
:10025000CD00043A031D37294B084C02C200420866
:100260002D228031210042092D22803103294D08A1
:10027000083A031D9B294C084B06031997290A309D
:100280004B02031897293C30C00005302000A00025
:1002900021004B08422280312100C007CA01C4015D
:1002A0004008860087010108C800C00A480E0F39BF
:1002B000473E2D228031210048080F39473E2D222C
:1002C000803121004808CA07C40A05304402031CD3
:1002D0005029CA09CA0A4A0E0F39473E2D228031D9
:1002E00021004A080F39473E2D2280312100C601E6
:1002F000C8302000A300A401C630A500A601A60AAC
:100300004F228031003A03190329210046084A068A
:10031000031D0329CB0A4B084C06031D9329CB016F
:10032000CC013522803100302D22803103298230EA
:100330002D22803103294D08103A031DA729CB0136
:10034000CC013522803100302D22803103294D0827
:1003500060390319292A4D08C9000330C905C8307E
:100360002000A300A401A030A5000A30A0002100B5
:10037000490842228031023EA6004F228031003AD5
:100380000319252AA0302100C700BF01C501490873
:100390002000A000A1010530A200A301E4228031C9
:1003A0002108803ABB0080303B02031DDB2921007D
:1003B000450820002002031CFE2921004708860072
:1003C00087010108B93E2000EE002100C70A470856
:1003D00086000108B93E2000EF002100C70A200076
:1003E0006E0EF0396F042100C3004508A03E860060
:1003F000430881004308BF07C50AC7292100BF0879
:10040000031D212A20000C158B132100CD1E0F2A5D
:1004100049082000AC00A030F9228031152A4D1F78
:10042000152AA0308331E323803100302D22803122
:100430002100CB01CC013522803120000C118B171B
:10044000032984302D228031032983302D228031ED
:10045000032981302D22803103292000A000111EA4
:100460002F2A200823009A000800CE01CF01D001D6
:10047000D10120001C1521008C12270013120B1033
:100480008B1508002000A200A10120082218A10756
:10049000A035A236A208031D452A21080800FA301B
:1004A000A80026080319732A240823040319732AB1
:1004B000911E642A250886008701230019088100FF
:1004C0002000A50AA603692A0A30A700A70B662AFE
:1004D00064002000A80B512AFA30A8000130A302C2
:1004E0000030A43B512A2608003A0030031901309D
:1004F000080023009E161D169D171E159F154030DF
:100500009B0003309C002100111291120800210071
:100510008C123F3020009B00203025009100CF300E
:1005200093051308F0390C38930020001808CF39D0
:1005300020389800960197012700111612168B1784
:100540000B1708002000A10021004F1F10344F138B
:100550002000A3012308D23E860087010108210064
:10056000DC062000A30A0A302302031CAA2AA401E5
:10057000A20124082107A000860087012208D23E9C
:1005800084008501000EF0398100A20A24082107A9
:10059000A00086002208D23E840000088104A20A3E
:1005A000A40A05302402031CB92A21005C08031D9B
:1005B0002034003400302000911A01300800911ED0
:1005C000DF2A230019080800A401A501201CEC2A39
:1005D0002208A4072308A53DA235A30DA136A00C2F
:1005E00021082004031DE62A2508A1002408A000F4
:1005F0000800B0001C1521008C1215302000AF003F
:100600003730AE00CA30AD00AD0B042BAE0B042B5F
:10061000AF0B042B0B2B20002C080339AD00AD0CC5
:10062000AD0C2D0CC039F904B1012C0831020318AE
:100630002B2B0530A00031084222AD0030082D07D9
:10064000A3003108090709070907203E8531D12594
:100650008031B10A152BB2012C08320203184E2B3F
:100660003208090709070907203EA5000130A60046
:100670000314320DA7006E238031200032080907D1
:1006800009070907243EA5000130A6003235023EC5
:10069000A7006E2380312000B20A2C2B7630A500F3
:1006A000A601A7016E238031D123803102302000C2
:1006B000A00000309B2380311530AF003730AE00F2
:1006C000CA30AD00AD0B622BAE0B622BAF0B622BB1
:1006D000692B20001C1121008C160800D1238031C9
:1006E00003302000A00004309B238031AB01083090
:1006F000A000250886002608870001089B2380317A
:10070000A50A0319A60AAB0A04302B02031C772B97
:100710000330A00027089B2380310530AA000B304E
:10072000A900F230A800A80B932BA90B932BAA0BBE
:10073000932B9A2B0800A3000130A1002003890A03
:10074000A22BA135890BA12B2108A400A00320080E
:10075000FF3A03190800DB30A100AE2BAF2BA10B31
:10076000AD2BB22B2000230824050319C02B033026
:10077000A200A730A100A10BBB2BA20BBB2BC02B4F
:1007800020001C1121008C16B3302000A100C82BC2
:10079000A10BC72B20001C1521008C122000A335B3
:1007A000A62B20001C1121008C1603302000A10074
:1007B0007D30A000A00BDA2BA10BDA2B20001C153A
:1007C00021008C1208002000B700DD30BA0086003E
:1007D0008701FF308100BA0A3A0886008101810A48
:1007E0000230B9008030B600B201B801B101B301E6
:1007F000370886008701010836050319052C0130EA
:10080000B1063A08860039088104B935B908031DD4
:10081000102CB901B90ABA0A3A0886008701810189
:10082000B636B608031D162C8030B600B30A043065
:100830003302031CF82B31080319232C3A088600D5
:10084000870139088104B935B908031D2E2CB90177
:10085000B90ABA0A3A08860087018101381C382C87
:1008600037088600870101080F39B206B70A3E2C07
:10087000370886008701010E0F39B206B80A0A3020
:100880003802031CF62BB401B21D4B2C3A0886002B
:10089000870139088104B935B235B40A043034020D
:1008A000031C442C1C1521008C1215302000B000B4
:1008B0003730AF00CA30AE00AE0B5C2CAF0B5C2CF7
:1008C000B00B5C2C632C0E25833183302000A300F9
:1008D0000430F22483312000B5018830A300FF30BA
:1008E000F22483312000B50A04303502031C6D2C3C
:1008F0000830A3000030F224833120001C152100B1
:100900008C1205302000B0000B30AF00F230AE008A
:10091000AE0B882CAF0B882CB00B882C8F2C04309E
:100920002000A700E530B424833105302000A70063
:10093000DD30B424833106302000A700E130B42438
:10094000833120001C1121008C1615302000B000CE
:100950003730AF00CA30AE00AE0BAC2CAF0BAC2CB6
:10096000B00BAC2CB32C0800AC000E2583318330C7
:100970002000A3000230F224833186302000A3003F
:100980002708F22483312000AB01AD018830A30099
:100990002C08860087010108F224833120002C08EE
:1009A000860087010108AB06AC0AAD0A04302D02AF
:1009B000031CC62C0830A3002B08F224833120002E
:1009C0001C1521008C1205302000AA000B30A90054
:1009D000F230A800A80BEA2CA90BEA2CAA0BEA2CEF
:1009E000F12C0800A4002308A5008030A505A3135E
:1009F000A3032308FF3A0319082D003024180130FF
:100A0000A6003D25833120002608A506A436F82C33
:100A10002508813A0030031901303D2D20001C11BA
:100A200021008C167F302000A300A30B152D182D5C
:100A300020001C1521008C12FF302000A300A30B06
:100A40001F2D222D20001C1121008C1604302000A7
:100A5000A4005130A300A30B2B2DA40B2B2D302D64
:100A600020001C1521008C12D9302000A300382D45
:100A7000A30B372D3B2D00303D2D2000A200220876
:100A80000319502D1C1521008C1203302000A100E9
:100A9000A730A000A00B4A2DA10B4A2D4F2D080016
:100AA0001C1121008C1689302000A000572D582DD4
:100AB000A00B562D20001C1521008C12D9302000CF
:100AC000A000622DA00B612D652D08000930500299
:100AD0000318712D4F0E0339031DBE2DFF30D000BA
:100AE000BE2D4F0E0339F0004F0CF100710C01398F
:100AF000F1007008F106F10DF10D4F087106FB3998
:100B00007106CF004E080F39F000F00A4E0870064B
:100B1000F0397006CE004E080F39053A031DB92D85
:100B200050083F3A0319962D4F199E2D50083F3A11
:100B3000031DA32D4F0E03390319A32DFF30D00041
:100B40000F30CE05B42D4E0E0F39D23E86008701F0
:100B5000510881004E0E0F39F000F00AF00E4E08D9
:100B600070060F397006CE00F030CE054F11D1015E
:100B7000BE2DD1354F0E0339031D5114D00A500834
:100B8000403A031D0800200018109601970121002B
:100B90001110200011101C1121008C168B114F1701
:100BA0000800AA00860001308700FF308100AA0AF1
:100BB0002A088600803081004030A9008030A700DC
:100BC000A501A801A401A601230886008701010848
:100BD00027050319F32D0130A4062A0886000130E9
:100BE000870029088104A936A908031DFF2D80303C
:100BF000A900AA0A2A088600013087008101A736C9
:100C0000A708031D052E8030A700A60A043026027F
:100C1000031CE42D24080319132E2A088600013032
:100C2000870029088104A936A908031D1F2E8030DA
:100C3000A900AA0A2A088600013087008101281C21
:100C4000292E23088600870101080F39A506A30A6B
:100C50002F2E230886008701010E0F39A506A80A4A
:100C60000A302802031CE22D2A0886000130870082
:100C7000253581040800D008031D462E4F0E033988
:100C8000013A031D6D2EFF30D0006D2ED1354F0E71
:100C90000339031D51144E080F39F000F00A4E08B5
:100CA0007006F0397006CE004E080F39083A031D61
:100CB0006D2E4E0E0F39D23E8600870151088100FD
:100CC0004E0E0F39F000F00AF00E4E0870060F3984
:100CD0007006CE00F030CE05D101D00A5008213A7E
:100CE000031D080020001810960197012100111023
:100CF000200011108B1121004F17080064008001A3
:100D00000131890B7F2E0034FF3FFF3FFF3FFF3F44
:020000040001F9
:04000E0084C9FFDBC7
:00000001FF
